:020000040000FA
:060000001F28372A000052
:08000800AA000308AB0003137A
:1000100083128C1E1A287508840083171A08800022
:100020000D3C0319F614F50A6F307502031D1A28EA
:10003000750376142B088300AA0E2A0E09000313F9
:1000400083128701860107178316BF3087000030AF
:100050008600F7308500831603130E309F0083124D
:10006000CC2084298312031305309F001F193628E2
:100070001E08A00008002708031783128D00043013
:100080008F0083168C170C140000000083120C08DC
:100090000313A00003170E08031308000030AC0080
:1000A000AC0B502808002708F000F1016E20A000DA
:1000B00008002708F000F1012008F2008B28031344
:1000C000831208009F2083168C170C140000000078
:1000D00083120C08F2000E08F3005F289F2083169D
:1000E0008C130C1483120C085F289F2072088C005C
:1000F00073088E0083168C170C150B08F4008B13F5
:1001000055308D00AA308D008C140000000074085A
:100110008B000C115F289F2072088C0083168C13B3
:100120000C158B1355308D00AA308D008C1483165E
:100130008C1898288B170C115F28080008000317EB
:10014000831270088D0071088F000800F030AF0036
:10015000AE00AE0BA928F6180800AF0BA8280800BF
:10016000AE0040302E0230300318073E2E02080049
:10017000AF00F039AE00AE0E0A302E023030031858
:10018000073EAE072F080F39AF000A302F0230307C
:100190000318073EAF0708001030F500831624301F
:1001A00098008C16193099008312903098008B17A4
:1001B0000B17F601080062207208A200A213F20DCC
:1001C000F30D73080C1EE228990022080319080099
:1001D0000C1EE8289900F00A70080319F10ADB28C0
:1001E0007230F0000230F100DB2040300C1EF628A7
:1001F000990008007730F0000230F100DB20403039
:100200000C1E0029990008007C30F0000230F1003B
:10021000DB2040300C1E0A29990008000C1E0E2914
:10022000990008001030F500750884008317000855
:10023000AE000D3C031908002E080C1E1D29990064
:10024000F50A14291030F5000330AF00750884005A
:1002500083170008403C031D0800F50AAF0B262950
:1002600003150800031715080313B020AF00AF0EE5
:10027000031716080313B0202F07F1000317170800
:100280000313B020AF00AF0E031718080313B020FC
:100290002F07F00008007508840083170008031377
:1002A000B020AF00AF0E0317F50A750884000008F0
:1002B0000313B0202F07F3000317F50A7508840015
:1002C00000080313B020AF00AF0E0317F50A75083E
:1002D000840000080313B0202F07F200F50A03176B
:1002E00008007308B8202E080E212F080E2172086E
:1002F000B8202E080E212F080E2108009B30F00098
:100300000230F100DB209B29051994290530F1000A
:100310000030F100622073083F3C031994297208F1
:10032000FF3C03199429002DF020A62008308506F3
:10033000F618A02995291030F500F6010B1795291C
:100340000B132221031D9B29031714080313AE006E
:10035000523C0319EC292E08723C0319F0292E088F
:10036000573C0319FC292E08773C0319022A2E0852
:100370004A3C0319142A2E085A3C0319352A2E0820
:10038000433C03196A2A2E08583C0319102A2E08E8
:10039000563C0319122A2E08553C03196F2A2E08C1
:1003A000453C0319D7299B2940300E219B29322136
:1003B00003171908031303138312523C0319E52989
:1003C0001A30F5004B218B20D4296E20B8202E083E
:1003D0000E212F080E21D429322162207121D42927
:1003E00032211030A20062207121F00A7008031936
:1003F000F10AA20BF329D42932211930F5004B213F
:100400007520D42932210430A2001930F5004B2187
:100410007520F00A70080319F10AA20B072AD429E3
:10042000FA20D4290421D4291030F500F6014030F7
:100430000E210B17002D32217008F2007108F30015
:10044000F3167312F3150A128A11F1198A15711A2B
:100450000A163430F0000230F10075201030F5003B
:10046000F60140300E210B170028F020D429B400EB
:100470000308B500B8202E080E212F080E213408DD
:10048000B8202E080E212F080E212030840083135F
:100490000830AC000008B8202E080E212F080E21CD
:1004A000840AAC0B4A2A07083F39AF0005083039E7
:1004B000AE00AE0DAE0D2E08C0392F07B8202E08A5
:1004C0000E212F080E210608B8202E080E212F0815
:1004D0000E21D42935088300B40E340E08004030B4
:1004E0000E2100286529E430803C0D0A0000B61872
:1004F0003823B61B0D0A0000652B7339EF34203703
:100500002E19001A0D0A00006529E531F634E4328F
:100510000A0D0000612B693620320A0D0000CD2142
:1005200020223A29201000100A0D00006537743C83
:10053000201D2010000DEE247510E5392039EF2123
:080540006532A0100010000D4F
:100600004E2832283B28372A0E290F2B092B532836
:100610005928322020080E214E204E20092B103060
:10062000F500750884008317000883120313860001
:020630000F2B8E
:02400E00313F40
:00000001FF
